:100000000C9434000C9453000C943E000C943E006D
:100010000C943E000C943E000C943E000C943E0068
:100020000C943E000C943E000C943E000C943E0058
:100030000C943E000C943E000C943E000C943E0048
:100040000C943E000C943E000C943E000C943E0038
:100050000C943E000C943E000C943E000C943E0028
:100060000C943E000C943E0011241FBECFEFD8E04C
:10007000DEBFCDBF0E9477000C9489000C94000075
:10008000259A08952D9808952D9A08951D9A0895FA
:100090005298E9E6F0E080818260808380818E7FE3
:1000A0008083E89A08951F920F920FB60F92112441
:1000B0002F933F934F935F936F937F938F939F9370
:1000C000AF93BF93EF93FF930E944600FF91EF9190
:1000D000BF91AF919F918F917F916F915F914F9160
:1000E0003F912F910F900FBE0F901F9018950E9477
:1000F00040000E9442000E944800789483B7817FAC
:100100008C6083BF83B7816083BF889583B78E7F00
:06011000F8CFF894FFCFC8
:00000001FF
